:100000000C945D000C9485000C9485000C94850084
:100010000C9485000C9485000C9485000C9485004C
:100020000C9485000C9485000C9485000C9485003C
:100030000C9485000C9485000C9485000C9485002C
:100040000C9466030C9485000C94D6030C94B003B6
:100050000C9485000C9485000C9485000C9485000C
:100060000C9485000C94850000000008000201003B
:100070000003040700000000000000000000000072
:10008000250028002B0000000000240027002A0083
:10009000040404040404040402020202020203032E
:1000A0000303030301020408102040800102040836
:1000B00010200102040810207B0711241FBECFEF7F
:1000C000D8E0DEBFCDBF12E0A0E0B1E0E6E1F0E1B4
:1000D00002C005900D92AC35B107D9F723E0ACE52D
:1000E000B2E001C01D92A132B207E1F710E0CDE508
:1000F000D0E004C02197FE010E940308CC35D1074F
:10010000C9F70E9408040C9409080C94000090E0C0
:10011000FC01EC55FF4F249180579F4FFC018491C7
:10012000882399F090E0880F991FFC01EA57FF4F50
:10013000A591B491FC01E458FF4F859194918FB73C
:10014000F894EC91E22BEC938FBF089590E0FC01C2
:10015000E859FF4F2491FC01EC55FF4F3491FC010D
:10016000E057FF4FE491EE23C9F0222339F023300A
:1001700001F1A8F4213019F1223029F1F0E0EE0F5D
:10018000FF1FE458FF4FA591B4918FB7F894EC91FD
:10019000611126C030953E233C938FBF08952730D0
:1001A000A9F02830C9F0243049F7809180008F7D74
:1001B00003C0809180008F7780938000DFCF84B56B
:1001C0008F7784BDDBCF84B58F7DFBCF8091B0006E
:1001D0008F778093B000D2CF8091B0008F7DF9CF20
:1001E0003E2BDACF1F93CF93DF93182FEB010E94A2
:1001F0008700209739F460E0812FDF91CF911F9124
:100200000C94A600CF3FD10511F461E0F5CFE12FAA
:10021000F0E0E859FF4FE491E33031F140F4E13090
:10022000B1F0E230E1F0C038D1057CF7E4CFE7303F
:1002300029F1E83059F1E430B1F780918000806213
:1002400080938000D0938B00C0938A0004C084B553
:10025000806884BDC7BDDF91CF911F91089584B59B
:10026000806284BDC8BDF7CF809180008068809394
:100270008000D0938900C0938800EDCF8091B000BA
:1002800080688093B000C093B300E5CF8091B00048
:1002900080628093B000C093B400DDCF8E50806444
:1002A00080937C0080917A00806480937A008091B2
:1002B0007A0086FDFCCF80917800909179000895B6
:1002C0003FB7F8948091800290918102A0918202C0
:1002D000B091830226B5A89B05C02F3F19F0019667
:1002E000A11DB11D3FBFBA2FA92F982F8827BC0190
:1002F000CD01620F711D811D911D42E0660F771FB8
:10030000881F991F4A95D1F708958F929F92AF92B7
:10031000BF92CF92DF92EF92FF924B015C010E945D
:1003200060016B017C010E9460016C197D098E09DE
:100330009F09683E734081059105A8F321E0821A68
:100340009108A108B10888EEC80E83E0D81EE11C10
:10035000F11C81149104A104B10429F7FF90EF90DE
:10036000DF90CF90BF90AF909F908F900895AF9205
:10037000BF92CF92DF92EF92FF920F931F93CF9392
:10038000DF936C017B018B01040F151FEB015E01F4
:10039000AE18BF08C017D10759F06991D601ED9189
:1003A000FC910190F081E02DC6010995892B79F728
:1003B000C501DF91CF911F910F91FF90EF90DF90DA
:1003C000CF90BF90AF900895FC01538D448D252FA1
:1003D00030E0842F90E0821B930B541710F0CF96DF
:1003E000089501970895FC01918D828D981761F011
:1003F000A28DAE0FBF2FB11D5D968C91928D9F5F28
:100400009F73928F90E008958FEF9FEF0895FC0106
:10041000918D828D981731F0828DE80FF11D858DB9
:1004200090E008958FEF9FEF0895FC01918D228D4C
:10043000892F90E0805C9F4F821B91098F739927D1
:10044000089584E892E00E94150221E0892B09F4C6
:1004500020E0822F089580E090E0892B29F00E940F
:10046000210281110C9400000895FC01A48DA80FB5
:10047000B92FB11DA35ABF4F2C91848D90E00196E6
:100480008F739927848FA689B7892C93A089B18906
:100490008C91837080648C93938D848D981306C0A7
:1004A0000288F389E02D80818F7D80830895EF920B
:1004B000FF920F931F93CF93DF93EC0181E0888F1E
:1004C0009B8D8C8D98131AC0E889F989808185FFEE
:1004D00015C09FB7F894EE89FF896083E889F98990
:1004E00080818370806480839FBF81E090E0DF9192
:1004F000CF911F910F91FF90EF900895F62E0B8DE5
:1005000010E00F5F1F4F0F731127E02E8C8D8E119F
:100510000CC00FB607FCFACFE889F989808185FF06
:10052000F5CFCE010E943502F1CFEB8DEC0FFD2F00
:10053000F11DE35AFF4FF0829FB7F8940B8FEA89C1
:10054000FB8980818062CFCFCF93DF93EC01888DD0
:100550008823B9F0AA89BB89E889F9898C9185FD3E
:1005600003C0808186FD0DC00FB607FCF7CF8C91CC
:1005700085FFF2CF808185FFEDCFCE010E9435024D
:10058000E9CFDF91CF910895FC0101900020E9F7B8
:100590003197AF01481B590BBC0184E892E00C94E1
:1005A000B7018F929F92AF92BF920F931F93CF93F9
:1005B000DF93CDB7DEB7A1970FB6F894DEBF0FBEBD
:1005C000CDBF19A2423008F44AE08E010F5D1F4FE3
:1005D000842E912CB12CA12CA50194010E94D2074C
:1005E000E62FB901CA01EA30F4F4E05DD801EE93D8
:1005F0008D01232B242B252B79F790E080E0109799
:1006000019F0CD010E94C402A1960FB6F894DEBF86
:100610000FBECDBFDF91CF911F910F91BF90AF90D3
:100620009F908F900895E95CE1CFCF92DF92EF9297
:10063000FF92CF93DF936B017C016DE284E892E03F
:100640000E945702EC0166277727CB016C197D09C0
:100650008E099F094AE00E94D1028C0F9D1FDF91F5
:10066000CF91FF90EF90DF90CF900895CF93DF93DD
:100670000E94C402EC0182E191E00E94C4028C0F4E
:100680009D1FDF91CF910895CF93DF93BC01990F08
:10069000880B990B97FF0CC00E941503EC0182E1B7
:1006A00091E00E94C4028C0F9D1FDF91CF910895AD
:1006B0004AE00E94D102F2CFBC01990F880B990B3E
:1006C00097FD0C9415034AE00C94D1021F920F92EF
:1006D0000FB60F9211242F933F938F939F93AF9355
:1006E000BF9380917C0290917D02A0917E02B09197
:1006F0007F0230917B0223E0230F2D3758F50196BE
:10070000A11DB11D20937B0280937C0290937D02FA
:10071000A0937E02B0937F0280918002909181022B
:10072000A0918202B09183020196A11DB11D809318
:10073000800290938102A0938202B0938302BF91C2
:10074000AF919F918F913F912F910F900FBE0F907E
:100750001F90189526E8230F0296A11DB11DD2CF38
:100760001F920F920FB60F9211242F933F934F9326
:100770005F936F937F938F939F93AF93BF93EF9309
:10078000FF9384E892E00E943502FF91EF91BF91C0
:10079000AF919F918F917F916F915F914F913F9119
:1007A0002F910F900FBE0F901F9018951F920F92D0
:1007B0000FB60F9211242F938F939F93EF93FF9374
:1007C000E0919402F09195028081E0919A02F0917B
:1007D0009B0282FD1BC0908180919D028F5F8F7371
:1007E00020919E02821741F0E0919D02F0E0EC57CB
:1007F000FD4F958F80939D02FF91EF919F918F9177
:100800002F910F900FBE0F901F9018958081F4CFFD
:10081000789484B5826084BD84B5816084BD85B5DB
:10082000826085BD85B5816085BD80916E008160E7
:1008300080936E001092810080918100826080938D
:10084000810080918100816080938100809180008F
:100850008160809380008091B10084608093B100BA
:100860008091B00081608093B00080917A008460B4
:1008700080937A0080917A00826080937A008091E0
:100880007A00816080937A0080917A0080688093FA
:100890007A001092C100E0919402F091950282E0FA
:1008A0008083E0919002F09191021082E091920297
:1008B000F09193028FEC808310929C02E091980259
:1008C000F091990286E08083E0919602F091970280
:1008D000808180618083E0919602F091970280810F
:1008E00088608083E0919602F09197028081806811
:1008F0008083E0919602F091970280818F7D8083C2
:1009000084E00E94870085E00E94870087E00E94C3
:10091000870086E00E9487008DE00E94870085E1C5
:1009200091E00E94360364EF71E080E090E00E9465
:1009300085018EE00E944E01EC018FE00E944E0185
:10094000C559D140C73CD10508F00AC18E59914024
:10095000873C910508F004C183E491E00E943603CE
:1009600081E090E090937A028093790260E08DE0DC
:100970000E94A6008AE9882E99249394A12CB12C78
:1009800093E6492E9EEF592E66246A94762C2224F3
:100990002A94312C8091790290917A0281309105CC
:1009A00009F092C28FB7F894C0907C02D0907D027B
:1009B000E0907E02F0907F028FBFC0927502D092CD
:1009C0007602E0927702F09278028EE00E944E0169
:1009D00090937402809373028FE00E944E01909373
:1009E00072028093710280916D0290916E02A091CB
:1009F0006F02B0917002A7019601281B390B4A0BB8
:100A00005B0BDA01C901843F9140A105B10508F4EF
:100A100046C0C0926D02D0926E02E0926F02F092D8
:100A2000700289EF91E00E94360385E092E00E9417
:100A3000C40280916B0290916C020E945C0380E181
:100A400092E00E94C4028091690290916A020E9421
:100A50005C038FE192E00E94C4028091680290E002
:100A60000E94440380E392E00E94C40280916602E7
:100A7000909167020E945C038BE392E00E94C402A3
:100A800080916402909165020E945C038AE492E086
:100A90000E94C4028091630290E00E94440320916E
:100AA0007102309172022D3941E034070CF0A1C07F
:100AB00010926202032E000C440B550B2D5931404D
:100AC00041095109AFEFB0E00E94C707A3019201AD
:100AD0000E94A80730936C0220936B023093670248
:100AE000209366022091730230917402F0906202AA
:100AF00000916B0210916C02C0916602D091670266
:100B0000243981E038070CF022C1032E000C440B7D
:100B1000550B2459314041095109AFEFB0E00E9413
:100B2000C7072CE63EEF4FEF5FEF0E94A807FF20BC
:100B300009F487C061E060936102020F131F1093F4
:100B40006C0200936B02C217D3070CF471C0609360
:100B50006002C21BD30BD0936702C093660285C0AC
:100B60008FE591E00E9436038FB7F894C0907C0225
:100B7000D0907D02E0907E02F0907F028FBF2FB771
:100B8000F89480917C0290917D02A0917E02B091B8
:100B90007F022FBF8C199D09AE09BF09883B9B407E
:100BA000A105B105D8F48EE00E944E01EC018FE062
:100BB0000E944E01C559D140C73CD10528F48E5939
:100BC0009140873C910538F06AE070E080E090E069
:100BD0000E948501D4CF8AEA91E0C0CE8CEC91E0EE
:100BE0000E94360382E090E090937A02809379022B
:100BF000C1CE263652E0350794F081E08093620240
:100C0000032E000C440B550B255632404109510967
:100C1000AFEFB0E00E94C707A501940159CF109231
:100C20006C0210926B0210926702109266025ACF09
:100C3000109260022C1B3D0B3093670220936602DA
:100C400014C010926002C20FD31FD0936702C093EA
:100C50006602021713070CF470C010926102021BA7
:100C6000130B10936C0200936B0280916B029091B6
:100C70006C028F3F910529F024F030926C02209293
:100C80006B0280916602909167028F3F910529F077
:100C900024F0309267022092660280916602909161
:100CA000670220916B0230916C0237FF04C01092F2
:100CB0006C0210926B0297FF04C0109267021092B0
:100CC00066024091750250917602609177027091B0
:100CD000780280915C0290915D02A0915E02B091D9
:100CE0005F028A019B01081B190B2A0B3B0BD901E0
:100CF000C8014497A105B10508F4A5C03091680268
:100D00008091690290916A0240935C0250935D0267
:100D100060935E0270935F0220916102321709F4C2
:100D200075C0181619060CF06EC0059797FD50C0D7
:100D300090936A02809369024FC081E080936102C0
:100D4000201B310B30936C0220936B028ECF2D351C
:100D500092E03907C4F1032E000C440B550B2C55BF
:100D6000324041095109AFEFB0E00E94C70723EAC2
:100D700031E040E050E00E94A807FF2091F061E0E0
:100D800060936002C20FD31FD0936702C0936602C4
:100D9000021713071CF06093610261CF1092610289
:100DA000CFCF10926102020F131F10936C020093B9
:100DB0006B02C217D3071CF010926002CACE81E00A
:100DC0008093600237CFF0926102F09260024DCFC3
:100DD00010926A021092690220916002809164026E
:100DE0009091650230916302321709F454C01816CD
:100DF00019060CF04DC0059797FD21C09093650230
:100E00008093640220C020936802E6CF20916B0299
:100E100030916C028217930754F40596281739070E
:100E20000CF086CF30936A0220936902D5CF281741
:100E3000390794F6059782179307A4F379CF109298
:100E40006502109264026091680284E00E94A6002C
:100E50006091630287E00E94A60060916902709130
:100E60006A0285E00E94F20060916402709165025E
:100E700086E00E94F20020E030E0232B09F48ACDC6
:100E80000E942102882309F485CD0E94000082CDB2
:100E900020936302D8CF20916602309167028217B7
:100EA000930754F40596281739070CF0A7CF309311
:100EB000650220936402C7CF2817390724F60597E7
:100EC00082179307A4F39ACF0297A9F661E08DE009
:100ED0000E94A60068EC70E080E090E00E9485012E
:100EE00060E08DE00E94A60068EC70E080E090E099
:100EF0000E948501C0CFE4E8F2E01382128288EEFE
:100F000093E0A0E0B0E084839583A683B78384E078
:100F100091E09183808385EC90E09587848784ECD1
:100F200090E09787868780EC90E0918B808B81ECB6
:100F300090E0938B828B82EC90E0958B848B86EC97
:100F400090E0978B868B118E128E138E148E0895DF
:100F5000052E97FB1EF400940E94BF0757FD07D093
:100F60000E94D20707FC03D04EF40C94BF075095A3
:100F70004095309521953F4F4F4F5F4F0895909585
:100F80008095709561957F4F8F4F9F4F08950E9478
:100F9000F407A59F900DB49F900DA49F800D911D07
:100FA00011240895A1E21A2EAA1BBB1BFD010DC03E
:100FB000AA1FBB1FEE1FFF1FA217B307E407F50709
:100FC00020F0A21BB30BE40BF50B661F771F881FE5
:100FD000991F1A9469F760957095809590959B017B
:100FE000AC01BD01CF010895A29FB001B39FC00124
:100FF000A39F700D811D1124911DB29F700D811D45
:101000001124911D0895EE0FFF1F0590F491E02D1E
:061010000994F894FFCFE3
:10101600000000005702B701E401A4021502F30123
:1010260007020D0A0053797374656D20737461723B
:1010360074696E672E2E2E20506572666F726D690A
:101046006E67206A6F79737469636B206368656382
:101056006B2E004A6F79737469636B204F4B2E2099
:1010660053797374656D204E6F726D616C2E004AF4
:101076006F79737469636B206973206F7574736914
:10108600646520646561647A6F6E652120506C65C5
:101096006173652063656E74657220746865206A85
:1010A6006F79737469636B2077697468696E20332E
:1010B600207365636F6E64732E004A6F797374696B
:1010C600636B2063656E74657265642E2053797355
:1010D60074656D204E6F726D616C2E004552524FD5
:1010E600523A204A6F79737469636B20636865634B
:1010F6006B206661696C6564212053797374656D34
:101106002068616C7465642E002D2D2D2D2D2D2DDE
:101116002D2D2D2D0054617267657420413A2000F3
:10112600207C2043757272656E7420413A2000203F
:101136007C20446972656374696F6E20413A2000B1
:1011460054617267657420423A2000207C20437502
:101156007272656E7420423A2000207C20446972C7
:0C116600656374696F6E20423A2000003F
:00000001FF
