:100000000C945D000C9485000C9485000C94850084
:100010000C9485000C9485000C9485000C9485004C
:100020000C9485000C9485000C9485000C9485003C
:100030000C9485000C9485000C9485000C9485002C
:100040000C946D020C9485000C94DD020C94B702A4
:100050000C9485000C9485000C9485000C9485000C
:100060000C9485000C94850000000008000201003B
:100070000003040700000000000000000000000072
:10008000250028002B0000000000240027002A0083
:10009000040404040404040402020202020203032E
:1000A0000303030301020408102040800102040836
:1000B0001020010204081020290511241FBECFEFD3
:1000C000D8E0DEBFCDBF11E0A0E0B1E0E2E7FBE0A9
:1000D00002C005900D92A231B107D9F721E0A2E14B
:1000E000B1E001C01D92AB3CB207E1F710E0CDE5F5
:1000F000D0E004C02197FE010E94B105CC35D107A4
:10010000C9F70E940F030C94B7050C94000090E00F
:10011000FC01EC55FF4F249180579F4FFC018491C7
:10012000882399F090E0880F991FFC01EA57FF4F50
:10013000A591B491FC01E458FF4F859194918FB73C
:10014000F894EC91E22BEC938FBF089590E0FC01C2
:10015000E859FF4F2491FC01EC55FF4F3491FC010D
:10016000E057FF4FE491EE23C9F0222339F023300A
:1001700001F1A8F4213019F1223029F1F0E0EE0F5D
:10018000FF1FE458FF4FA591B4918FB7F894EC91FD
:10019000611126C030953E233C938FBF08952730D0
:1001A000A9F02830C9F0243049F7809180008F7D74
:1001B00003C0809180008F7780938000DFCF84B56B
:1001C0008F7784BDDBCF84B58F7DFBCF8091B0006E
:1001D0008F778093B000D2CF8091B0008F7DF9CF20
:1001E0003E2BDACF1F93CF93DF93182FEB010E94A2
:1001F0008700209739F460E0812FDF91CF911F9124
:100200000C94A600CF3FD10511F461E0F5CFE12FAA
:10021000F0E0E859FF4FE491E33031F140F4E13090
:10022000B1F0E230E1F0C038D1057CF7E4CFE7303F
:1002300029F1E83059F1E430B1F780918000806213
:1002400080938000D0938B00C0938A0004C084B553
:10025000806884BDC7BDDF91CF911F91089584B59B
:10026000806284BDC8BDF7CF809180008068809394
:100270008000D0938900C0938800EDCF8091B000BA
:1002800080688093B000C093B300E5CF8091B00048
:1002900080628093B000C093B400DDCF8E50806444
:1002A00080937C0080917A00806480937A008091B2
:1002B0007A0086FDFCCF80917800909179000895B6
:1002C000AF92BF92CF92DF92EF92FF920F931F9364
:1002D000CF93DF936C017B018B01040F151FEB01A2
:1002E0005E01AE18BF08C017D10759F06991D60159
:1002F000ED91FC910190F081E02DC6010995892BCB
:1003000079F7C501DF91CF911F910F91FF90EF9089
:10031000DF90CF90BF90AF900895FC01538D448D36
:10032000252F30E0842F90E0821B930B541710F0A0
:10033000CF96089501970895FC01918D828D9817AD
:1003400061F0A28DAE0FBF2FB11D5D968C91928D85
:100350009F5F9F73928F90E008958FEF9FEF0895B6
:10036000FC01918D828D981731F0828DE80FF11D7F
:10037000858D90E008958FEF9FEF0895FC01918D9A
:10038000228D892F90E0805C9F4F821B91098F7393
:100390009927089582E191E00E94BE0121E0892B16
:1003A00009F420E0822F089580E090E0892B29F065
:1003B0000E94CA0181110C9400000895FC01A48DD3
:1003C000A80FB92FB11DA35ABF4F2C91848D90E077
:1003D00001968F739927848FA689B7892C93A0895A
:1003E000B1898C91837080648C93938D848D9813E4
:1003F00006C00288F389E02D80818F7D8083089577
:10040000EF92FF920F931F93CF93DF93EC0181E064
:10041000888F9B8D8C8D98131AC0E889F98980810B
:1004200085FF15C09FB7F894EE89FF896083E8893E
:10043000F98980818370806480839FBF81E090E030
:10044000DF91CF911F910F91FF90EF900895F62EBD
:100450000B8D10E00F5F1F4F0F731127E02E8C8D57
:100460008E110CC00FB607FCFACFE889F98980819C
:1004700085FFF5CFCE010E94DE01F1CFEB8DEC0FB1
:10048000FD2FF11DE35AFF4FF0829FB7F8940B8FB9
:10049000EA89FB8980818062CFCFCF93DF93EC0123
:1004A000888D8823B9F0AA89BB89E889F9898C915C
:1004B00085FD03C0808186FD0DC00FB607FCF7CF18
:1004C0008C9185FFF2CF808185FFEDCFCE010E9418
:1004D000DE01E9CFDF91CF9108951F920F920FB601
:1004E0000F9211242F933F938F939F93AF93BF93BA
:1004F0008091C7019091C801A091C901B091CA0132
:100500003091C60123E0230F2D3758F50196A11D28
:10051000B11D2093C6018093C7019093C801A09399
:10052000C901B093CA018091C2019091C301A09109
:10053000C401B091C5010196A11DB11D8093C201F6
:100540009093C301A093C401B093C501BF91AF9133
:100550009F918F913F912F910F900FBE0F901F9001
:10056000189526E8230F0296A11DB11DD2CF1F9228
:100570000F920FB60F9211242F933F934F935F93D7
:100580006F937F938F939F93AF93BF93EF93FF935B
:1005900082E191E00E94DE01FF91EF91BF91AF9166
:1005A0009F918F917F916F915F914F913F912F918B
:1005B0000F900FBE0F901F9018951F920F920FB6BD
:1005C0000F9211242F938F939F93EF93FF93E091BA
:1005D0002201F09123018081E0912801F09129010D
:1005E00082FD1BC0908180912B018F5F8F732091C2
:1005F0002C01821741F0E0912B01F0E0EE5EFE4FFE
:10060000958F80932B01FF91EF919F918F912F9167
:100610000F900FBE0F901F9018958081F4CF7894A3
:1006200084B5826084BD84B5816084BD85B58260F7
:1006300085BD85B5816085BD80916E0081608093A8
:100640006E00109281008091810082608093810011
:100650008091810081608093810080918000816021
:10066000809380008091B10084608093B10080917C
:10067000B00081608093B00080917A0084608093A4
:100680007A0080917A00826080937A0080917A006B
:10069000816080937A0080917A00806880937A00EC
:1006A0001092C100E0912201F091230182E0808349
:1006B000E0911E01F0911F011082E0912001F09164
:1006C00021018FEC808310922A01E0912601F091A4
:1006D000270186E08083E0912401F091250180814B
:1006E00080618083E0912401F09125018081886000
:1006F0008083E0912401F0912501808180688083CE
:10070000E0912401F091250180818F7D808384E038
:100710000E94870085E00E94870087E00E94870092
:1007200086E00E94870083EA482E55245394612C6A
:10073000712C9CE6892E9EEF992EAA24AA94BA2C9D
:1007400033243394CC24CA94D12C2FB7F8948091BD
:10075000C7019091C801A091C901B091CA012FBFF2
:100760008093BE019093BF01A093C001B093C101DB
:100770008EE00E944E017C019093BD018093BC01EC
:100780008FE00E944E019C019093BB018093BA01BF
:100790008D3901E090070CF058C01092B901032E7A
:1007A000000C440B550B2D59314041095109AFEF55
:1007B000B0E00E94750523E63EEF4FEF5FEF0E9429
:1007C00056053093B8012093B7013093B6012093BA
:1007D000B5012090B9010091B7011091B801C09105
:1007E000B501D091B60124E9E21621E0F2060CF041
:1007F000DEC09701FF0C440B550B245931404109D1
:100800005109AFEFB0E00E947505A50194010E9467
:100810005605C901222009F445C03092B401020FE7
:10082000131F0F3F110509F07CF51093B8010093D9
:10083000B701C817D9076CF13092B301C21BD30BB3
:10084000D093B601C093B50146C0863692409CF065
:100850003092B901032E000C440B550B2556324043
:1008600041095109AFEFB0E00E9475052AE931E076
:1008700040E050E0A4CF1092B8011092B70110925E
:10088000B6011092B501A5CFD092B801C092B701C0
:10089000D0CF1092B3012C1B3D0B3093B6012093A7
:1008A000B50119C01092B301C20FD31FCF3FD105BC
:1008B00011F00CF06EC0D093B601C093B5010817CB
:1008C00019070CF46BC01092B401021B130B1093A8
:1008D000B8010093B7018091B5019091B6012091C4
:1008E000B7013091B80137FF04C01092B8011092DF
:1008F000B70197FF04C01092B6011092B501609144
:10090000B40184E00E94A6006091B30187E00E94D8
:10091000A6006091B7017091B80185E00E94F200D5
:100920006091B5017091B60186E00E94F20080915D
:10093000BE019091BF01A091C001B091C101409151
:10094000AF015091B0016091B1017091B2018C0181
:100950009D01041B150B260B370BB901A801453F60
:1009600051406105710540F08093AF019093B00153
:10097000A093B101B093B20120E030E0232B09F441
:10098000E4CE0E94CA01882309F4DFCE0E94000051
:10099000DCCED092B601C092B50191CF3092B401B5
:1009A000201B310B3093B8012093B70194CF3DE564
:1009B000E31632E0F3060CF447C09701FF0C440B3A
:1009C000550B2C55324041095109AFEFB0E00E9460
:1009D0007505A30192010E945605C9012220D1F09C
:1009E0003092B301C20FD31FCF3FD10509F054F4A9
:1009F000D093B601C093B5010817190744F030929F
:100A0000B40163CFD092B601C092B501F5CF109278
:100A1000B401C6CF1092B401020F131F0F3F11058E
:100A200009F054F41093B8010093B701C817D9071F
:100A300044F01092B30102CFD092B801C092B70136
:100A4000F5CF3092B30127CF2092B4012092B301A9
:100A500042CFE2E1F1E01382128288EE93E0A0E05F
:100A6000B0E084839583A683B78384E091E091838B
:100A7000808385EC90E09587848784EC90E097876D
:100A8000868780EC90E0918B808B81EC90E0938B5B
:100A9000828B82EC90E0958B848B86EC90E0978B38
:100AA000868B118E128E138E148E0895052E97FB51
:100AB0001EF400940E946D0557FD07D00E9480052A
:100AC00007FC03D04EF40C946D055095409530957D
:100AD00021953F4F4F4F5F4F0895909580957095AA
:100AE00061957F4F8F4F9F4F08950E94A205A59F4C
:100AF000900DB49F900DA49F800D911D1124089519
:100B0000A1E21A2EAA1BBB1BFD010DC0AA1FBB1F11
:100B1000EE1FFF1FA217B307E407F50720F0A21B83
:100B2000B30BE40BF50B661F771F881F991F1A94F0
:100B300069F760957095809590959B01AC01BD011A
:100B4000CF010895A29FB001B39FC001A39F700D74
:100B5000811D1124911DB29F700D811D1124911DC5
:100B60000895EE0FFF1F0590F491E02D0994F8947D
:020B7000FFCFB5
:100B720000000000000260018D014D02BE019C01D7
:020B8200B001C0
:00000001FF
