:100000000C945D000C9485000C9485000C94850084
:100010000C9485000C9485000C9485000C9485004C
:100020000C9485000C9485000C9485000C9485003C
:100030000C9485000C9485000C9485000C9485002C
:100040000C9401030C9485000C9471030C944B03E5
:100050000C9485000C9485000C9485000C9485000C
:100060000C9485000C94850000000008000201003B
:100070000003040700000000000000000000000072
:10008000250028002B0000000000240027002A0083
:10009000040404040404040402020202020203032E
:1000A0000303030301020408102040800102040836
:1000B0001020010204081020190611241FBECFEFE2
:1000C000D8E0DEBFCDBF11E0A0E0B1E0E2E5FDE0A9
:1000D00002C005900D92AA34B107D9F722E0AAE434
:1000E000B1E001C01D92A330B207E1F710E0CDE509
:1000F000D0E004C02197FE010E94A106CC35D107B3
:10010000C9F70E94A3030C94A7060C94000090E08A
:10011000FC01EC55FF4F249180579F4FFC018491C7
:10012000882399F090E0880F991FFC01EA57FF4F50
:10013000A591B491FC01E458FF4F859194918FB73C
:10014000F894EC91E22BEC938FBF089590E0FC01C2
:10015000E859FF4F2491FC01EC55FF4F3491FC010D
:10016000E057FF4FE491EE23C9F0222339F023300A
:1001700001F1A8F4213019F1223029F1F0E0EE0F5D
:10018000FF1FE458FF4FA591B4918FB7F894EC91FD
:10019000611126C030953E233C938FBF08952730D0
:1001A000A9F02830C9F0243049F7809180008F7D74
:1001B00003C0809180008F7780938000DFCF84B56B
:1001C0008F7784BDDBCF84B58F7DFBCF8091B0006E
:1001D0008F778093B000D2CF8091B0008F7DF9CF20
:1001E0003E2BDACF1F93CF93DF93182FEB010E94A2
:1001F0008700209739F460E0812FDF91CF911F9124
:100200000C94A600CF3FD10511F461E0F5CFE12FAA
:10021000F0E0E859FF4FE491E33031F140F4E13090
:10022000B1F0E230E1F0C038D1057CF7E4CFE7303F
:1002300029F1E83059F1E430B1F780918000806213
:1002400080938000D0938B00C0938A0004C084B553
:10025000806884BDC7BDDF91CF911F91089584B59B
:10026000806284BDC8BDF7CF809180008068809394
:100270008000D0938900C0938800EDCF8091B000BA
:1002800080688093B000C093B300E5CF8091B00048
:1002900080628093B000C093B400DDCF8E50806444
:1002A00080937C0080917A00806480937A008091B2
:1002B0007A0086FDFCCF80917800909179000895B6
:1002C000AF92BF92CF92DF92EF92FF920F931F9364
:1002D000CF93DF936C017B018B01040F151FEB01A2
:1002E0005E01AE18BF08C017D10759F06991D60159
:1002F000ED91FC910190F081E02DC6010995892BCB
:1003000079F7C501DF91CF911F910F91FF90EF9089
:10031000DF90CF90BF90AF900895FC01538D448D36
:10032000252F30E0842F90E0821B930B541710F0A0
:10033000CF96089501970895FC01918D828D9817AD
:1003400061F0A28DAE0FBF2FB11D5D968C91928D85
:100350009F5F9F73928F90E008958FEF9FEF0895B6
:10036000FC01918D828D981731F0828DE80FF11D7F
:10037000858D90E008958FEF9FEF0895FC01918D9A
:10038000228D892F90E0805C9F4F821B91098F7393
:100390009927089586E691E00E94BE0121E0892B0D
:1003A00009F420E0822F089580E090E0892B29F065
:1003B0000E94CA0181110C9400000895FC01A48DD3
:1003C000A80FB92FB11DA35ABF4F2C91848D90E077
:1003D00001968F739927848FA689B7892C93A0895A
:1003E000B1898C91837080648C93938D848D9813E4
:1003F00006C00288F389E02D80818F7D8083089577
:10040000EF92FF920F931F93CF93DF93EC0181E064
:10041000888F9B8D8C8D98131AC0E889F98980810B
:1004200085FF15C09FB7F894EE89FF896083E8893E
:10043000F98980818370806480839FBF81E090E030
:10044000DF91CF911F910F91FF90EF900895F62EBD
:100450000B8D10E00F5F1F4F0F731127E02E8C8D57
:100460008E110CC00FB607FCFACFE889F98980819C
:1004700085FFF5CFCE010E94DE01F1CFEB8DEC0FB1
:10048000FD2FF11DE35AFF4FF0829FB7F8940B8FB9
:10049000EA89FB8980818062CFCFCF93DF93EC0123
:1004A000888D8823B9F0AA89BB89E889F9898C915C
:1004B00085FD03C0808186FD0DC00FB607FCF7CF18
:1004C0008C9185FFF2CF808185FFEDCFCE010E9418
:1004D000DE01E9CFDF91CF910895FC01019000206A
:1004E000E9F73197AF01481B590BBC0186E691E053
:1004F0000C9460018F929F92AF92BF920F931F93C3
:10050000CF93DF93CDB7DEB7A1970FB6F894DEBFD8
:100510000FBECDBF19A2423008F44AE08E010F5D34
:100520001F4F842E912CB12CA12CA50194010E9467
:100530007006E62FB901CA01EA30F4F4E05DD80193
:10054000EE938D01232B242B252B79F790E080E06F
:10055000109719F0CD010E946D02A1960FB6F89484
:10056000DEBF0FBECDBFDF91CF911F910F91BF9026
:10057000AF909F908F900895E95CE1CFCF92DF928A
:10058000EF92FF92CF93DF936B017C016DE286E6E1
:1005900091E00E940002EC0166277727CB016C19DD
:1005A0007D098E099F094AE00E947A028C0F9D1FE7
:1005B000DF91CF91FF90EF90DF90CF900895CF9390
:1005C000DF93BC01990F880B990B97FF0CC00E9419
:1005D000BE02EC0182E191E00E946D028C0F9D1F32
:1005E000DF91CF9108954AE00E947A02F2CFBC01D8
:1005F000990F880B990B97FD0C94BE024AE00C945E
:100600007A021F920F920FB60F9211242F933F93ED
:100610008F939F93AF93BF938091620190916301F9
:10062000A0916401B09165013091610123E0230F35
:100630002D3758F50196A11DB11D209361018093BE
:10064000620190936301A0936401B093650180916E
:100650005D0190915E01A0915F01B09160010196F2
:10066000A11DB11D80935D0190935E01A0935F0178
:10067000B0936001BF91AF919F918F913F912F9166
:100680000F900FBE0F901F90189526E8230F02962B
:10069000A11DB11DD2CF1F920F920FB60F92112440
:1006A0002F933F934F935F936F937F938F939F937A
:1006B000AF93BF93EF93FF9386E691E00E94DE0134
:1006C000FF91EF91BF91AF919F918F917F916F912A
:1006D0005F914F913F912F910F900FBE0F901F9000
:1006E00018951F920F920FB60F9211242F938F938C
:1006F0009F93EF93FF93E0917601F09177018081D2
:10070000E0917C01F0917D0182FD1BC09081809180
:100710007F018F5F8F7320918001821741F0E091FC
:100720007F01F0E0EA59FE4F958F80937F01FF91A2
:10073000EF919F918F912F910F900FBE0F901F906F
:1007400018958081F4CF789484B5826084BD84B597
:10075000816084BD85B5826085BD85B5816085BDBC
:1007600080916E00816080936E0010928100809174
:1007700081008260809381008091810081608093FC
:100780008100809180008160809380008091B10021
:1007900084608093B1008091B00081608093B0004C
:1007A00080917A00846080937A0080917A008260E0
:1007B00080937A0080917A00816080937A008091A2
:1007C0007A00806880937A001092C100E0917601EF
:1007D000F091770182E08083E0917201F0917301E2
:1007E0001082E0917401F09175018FEC808310927A
:1007F0007E01E0917A01F0917B0186E08083E091B7
:100800007801F0917901808180618083E0917801A5
:10081000F0917901808188608083E0917801F09186
:100820007901808180688083E0917801F09179017D
:1008300080818F7D808384E00E94870085E00E9414
:10084000870087E00E94870086E00E9487008CE690
:10085000482E8EEF582E66246A94762C90E0292E2E
:1008600090E0392EFF24F394CC24CA94D12C8FB776
:10087000F8948090620190906301A0906401B09020
:1008800065018FBF8092590190925A01A0925B013D
:10089000B0925C018EE00E944E01909358018093CB
:1008A00057018FE00E944E019093560180935501AD
:1008B0008091510190915201A0915301B091540146
:1008C00095018401081B190B2A0B3B0BD901C801A8
:1008D000843F9140A105B10508F442C085E191E053
:1008E0000E946D0280915701909158010E94F70279
:1008F00089E191E00E946D028EE191E00E946D021B
:1009000080915501909156010E94DF0282E291E0B0
:100910000E946D0280914F01909150010E94DF0270
:1009200082E391E00E946D0280914D0190914E0111
:100930000E94DF0282E491E00E946D0280914C01EE
:1009400090E00E94F70289E191E00E946D0286E446
:1009500091E00E946D0280914B0190E00E94DF02C5
:1009600020915501309156012D3941E034070CF0AA
:100970005BC010924A01032E000C440B550B2D59FD
:10098000314041095109AFEFB0E00E94650623E60E
:100990003EEF4FEF5FEF0E944606309350012093E9
:1009A0004F0130934E0120934D012091570130911A
:1009B0005801E0904A0100914F0110915001C091FF
:1009C0004D01D0914E01243981E038070CF0DEC092
:1009D000032E000C440B550B245931404109510999
:1009E000AFEFB0E00E946506A30192010E944606A7
:1009F000C901EE2009F446C0F0924C01020F131F0A
:100A00000F3F110509F084F51093500100934F0139
:100A1000C817D90774F1F0924B01C21BD30BD093C6
:100A20004E01C0934D0147C0263652E035079CF079
:100A3000F0924A01032E000C440B550B2556324010
:100A400041095109AFEFB0E00E9465062AE931E0A3
:100A500040E050E0A0CF1092500110924F01109250
:100A60004E0110924D01A1CFD0925001C0924F0182
:100A7000CFCF10924B012C1B3D0B30934E01209396
:100A80004D0119C010924B01C20FD31FCF3FD105AA
:100A900011F00CF06DC0D0934E01C0934D010817BA
:100AA00019070CF46AC010924C01021B130B10932F
:100AB000500100934F0180914D0190914E01209182
:100AC0004F013091500137FF04C010925001109235
:100AD0004F0197FF04C010924E0110924D0160919A
:100AE0004C0184E00E94A60060914B0187E00E94C7
:100AF000A60060914F017091500185E00E94F200C4
:100B000060914D0170914E0186E00E94F20080914B
:100B1000590190915A01A0915B01B0915C01409103
:100B200051015091520160915301709154018C0117
:100B30009D01041B150B260B370BB901A801453F7E
:100B400051406105710540F080935101909352012D
:100B5000A0935301B09354012114310409F487CEBA
:100B60000E94CA01882309F482CE0E9400007FCE31
:100B7000D0924E01C0924D0192CFF0924C01201BB9
:100B8000310B3093500120934F0195CF2D3542E02A
:100B900034070CF449C0032E000C440B550B2C55A4
:100BA000324041095109AFEFB0E00E94650623EAE7
:100BB00031E040E050E00E944606C901EE20D1F04D
:100BC000F0924B01C20FD31FCF3FD10509F054F46F
:100BD000D0934E01C0934D010817190744F0F092CD
:100BE0004C0163CFD0924E01C0924D01F5CF1092CF
:100BF0004C01C5CF10924C01020F131F0F3F11057E
:100C000009F054F41093500100934F01C817D9070D
:100C100044F010924B0101CFD0925001C0924F018D
:100C2000F5CFF0924B0127CFE0924C01E0924B01BF
:100C300042CFE6E6F1E01382128288EE93E0A0E074
:100C4000B0E084839583A683B78384E091E09183A9
:100C5000808385EC90E09587848784EC90E097878B
:100C6000868780EC90E0918B808B81EC90E0938B79
:100C7000828B82EC90E0958B848B86EC90E0978B56
:100C8000868B118E128E138E148E0895052E97FB6F
:100C90001EF400940E945D0657FD07D00E94700666
:100CA00007FC03D04EF40C945D06509540953095AA
:100CB00021953F4F4F4F5F4F0895909580957095C8
:100CC00061957F4F8F4F9F4F08950E949206A59F79
:100CD000900DB49F900DA49F800D911D1124089537
:100CE000A1E21A2EAA1BBB1BFD010DC0AA1FBB1F30
:100CF000EE1FFF1FA217B307E407F50720F0A21BA2
:100D0000B30BE40BF50B661F771F881F991F1A940E
:100D100069F760957095809590959B01AC01BD0138
:100D2000CF010895A29FB001B39FC001A39F700D92
:100D3000811D1124911DB29F700D811D1124911DE3
:100D40000895EE0FFF1F0590F491E02D0994F8949B
:020D5000FFCFD3
:100D520000000000000260018D014D02BE019C01F5
:100D6200B0010D0A00583A2000202C202000593AE8
:100D72002000415F6D6F746F725F73706565643AD6
:100D82002000425F6D6F746F725F73706565643AC5
:0A0D92002000413A2000423A200000
:00000001FF
